:1000000080F40020D98402006B150400C58402002E
:10001000C5840200C5840200C584020000000000FF
:100020000000000000000000000000001587020032
:10003000C584020000000000A9860200C5840200F9
:10004000358A02001F450400358A0200358A020005
:10005000358A0200358A0200358A0200358A02009C
:10006000EF440400358A0200358A02000945040085
:10007000358A0200358A0200358A0200358A02007C
:10008000358A0200358A0200358A0200358A02006C
:10009000358A0200358A0200358A0200358A02005C
:1000A000358A0200358A0200358A0200358A02004C
:1000B000358A0200358A0200358A0200358A02003C
:1000C000358A0200358A0200358A0200358A02002C
:1000D000358A0200358A0200358A0200358A02001C
:1000E000358A0200358A0200358A0200358A02000C
:1000F000358A0200358A0200358A0200358A0200FC
:1001000070B59FED0F7B82B005460F4E01920C46F5
:10011000104686ED007B03F097FA019A297868680B
:1001200003F054F8E368227A6168207803F08AFBD0
:10013000064A00233372537302B070BDAFF30080E0
:10014000000000000000000010400020F4550020D6
:100150002DE9F04F2DED068B8BB01E469DF87030CB
:1001600001939DF874309DF86C5002938B462AB32E
:100170000128144625D028B100200BB0BDEC068B19
:10018000BDE8F08F002D00F08E82DDED1A7AB8EE1A
:10019000E77A07EE905AF8EE677AB6EE006AC7EE95
:1001A000276A9FED9F7A66EE867A67EE877ACBEDB7
:1001B000007A0BB0BDEC068BBDE8F08F012806ACD1
:1001C000D9D1984D4FF480520021284644F020FFA9
:1001D0004FF4A0729448002144F01AFF05F52077EF
:1001E00033462A462E4693EDF06AD3ED507AD3ED8E
:1001F000A06A93ED007A67EEC67A0433E6EE877A5A
:10020000083242ED027A53ED017A93EDEF6AD3EDB5
:100210009F6A93ED4F7A67EE867AE6EE877A42ED33
:10022000017A9742DFD1804B03939A4603F5A07879
:100230003346DFF8F0919FED7D8A264654469A4674
:1002400006E084ED008A0434A04509F1080918D0BD
:10025000D9ED000AD9ED017AF5EE400AF1EE10FA77
:10026000B0EE670A04D1F5EE407AF1EE10FAE8D06C
:100270003EF0EEF8043404ED010AA04509F1080946
:10028000E6D13446039BDFED696A9FED696ADFEDD5
:10029000695A694A56464FF0000806E077EEA67A9A
:1002A000C0ED007A88469A4221D0B3EC017AB4EED0
:1002B000667AF1EE10FAF6D0D3ED007A5F49F4EEEB
:1002C000667AF1EE10FA01EB880008F10101EAD03C
:1002D00077EEC77AF4EEC67AF1EE10FADED4F4EED9
:1002E000E57AF1EE10FAA8BF77EEE67AD8E79FED4F
:1002F000548A96ED016AD6ED006A4A4BB0EE485A30
:100300000122D3ED035AD3ED024A65EEA67A25EE1B
:10031000867AE4EEC67A02324F2A93ED056AA4EE9D
:10032000A67A03F11003D3ED006A65EE863A24EE57
:10033000864AE4EEA63AF0EE444AE6EEE54A37EEA7
:10034000055A37EE888A35EE235A38EE248AD8D1FA
:100350003C4B53ED025AD3ED017A53ED016A93ED14
:10036000006A26EEA77A65EEA77AA6EE257A08330C
:100370009F42E6EE667A35EE075A38EE278AE8D1D4
:1003800015EE100A07F014FD41EC190B18EE100AD7
:1003900007F00EFDB0EE491AF0EE691A41EC100BB1
:1003A00020F092FD1AA3D3E9002351EC100B07F0C3
:1003B00057FD19A3D3E9002301F1004107F07AFEAC
:1003C00007F0E8FF07EE900AF5EEC07AF1EE10FABA
:1003D00048BFDFED1B7A5FEA5803CBED017A039348
:1003E0004CD01846A146404545D2C0EB8076134C10
:1003F000B600A8EB000E4FEA800A4FF0000CBCF1EB
:10040000000F614631DB0AEB0402234624E000BF03
:1004100000000000A3E1B14100000060ECF767417B
:100420009A99993EE4570020E4670020DB0FC94009
:10043000DB0F49C0DB0F494020690020A85600208F
:10044000000000005C5A0020091A83ED007AC2ED1A
:10045000007A3344324408D492ED007AD3ED007A26
:10046000B4EEE77AF1EE10FAEEDB0CF1010CE645A2
:1004700004F10404C3D14008B5D14C46B54B039AEE
:1004800018F0010F03EB8203D3ED007A07D153ED8F
:10049000016A77EEA67AB6EE007A67EE877A9FED6C
:1004A000AE7ADFEDAE6ADFEDAE0A27EE677AB2EE26
:1004B000040AC7EE267A9DED017AF5EEC07AB8EE11
:1004C000478A9FEDA87AF1EE10FA38EE478A48BFC6
:1004D000DFEDA57AC8EE200AC4ED007A20F0ECFD2D
:1004E000DFEDA20A84ED030AC8EE200AB2EE040A88
:1004F00020F0E2FDF3EE040A84ED020AC8EE200AC1
:10050000B2EE040A20F0D8FD029B8BED020A63B123
:100510001E99974B1F9A51F8040B1860083352F834
:10052000040B43F8040C9F42F5D1DFF84C9291483C
:10053000A9F500610F460123002237F0D5FA4FF0EC
:10054000000A3E46B84608E044F037FD043707EDA0
:10055000010AB94508F1080813D098ED010AD8ED51
:10056000007A20EE000AA7EEA70AB5EEC00AF1EE67
:1005700010FAE9DAC7F800A00437B94508F108080D
:10058000EBD17D4BA3F5806053F8041D2A6845F834
:10059000041BA8421A60F7D104AB4FF400717448F1
:1005A00005AA36F081FC0499744BB1F5FF7F00F089
:1005B0005E819DED056A93ED008A0020F0EE046AED
:1005C0004FF4FF7540F2FF1206E0914276D0012011
:1005D0001546B0EE678A1A4606EB8203D3ED007A21
:1005E000F4EEC87A531CF1EE10FAC3F30803ECD50D
:1005F00028EE267A531CB4EEC67AF1EE10FAC3F355
:10060000080359DD531CC3F30803002854D0B5F583
:10061000FF7F2F46C0F0BC806B1CC3F3080307EEBE
:10062000903AF8EEE77A002F4FD1554A92ED006AE2
:10063000B4EEC68A06EB8505F1EE10FAD5ED016A37
:1006400040DBF4EEC86AF1EE10FA3BD836EE267ABB
:10065000F1EE005A37EE077A36EEC66A98EE257A42
:10066000F0EE476A86EE267AB3F5FF7F5BDB454BFB
:10067000CBF80030DBED017A9FED437AF0EEE76ACC
:10068000F4EE476AF1EE10FA09D9D4ED007AF0EEF3
:10069000E76AF4EE476AF1EE10FA00F2E380CBED80
:1006A000037A002069E500232846CBF800300BB020
:1006B000BDEC068BBDE8F08F914289D1B0EE678A20
:1006C0000D46A4E79FED287ACEE706EB850212EDF2
:1006D000016A40F2FF129742AAD1B4EEC86AF1EE65
:1006E00010FAD6ED006AACD9DFED1F6A9FED1A7AD9
:1006F00077EEA67ADFED256A67EE877A87EEA67A2F
:10070000DFED216A8BED007AF0EEC77AF4EE667ABF
:10071000F1EE10FAAED800208BED037A0BB0BDECF1
:10072000068BBDE8F08F77EE277A9FED0B7A9FED71
:10073000176ADFED0D6A67EE877A87EE867AB4EE88
:10074000E67AF1EE10FADBD5B0EE667ACBED006A10
:10075000E1E700BFA8560020180D8F4D63BF3F4B47
:10076000000030420000204200000000000008426B
:10077000E4570020EC880400E45F0020DC5F0020E8
:10078000E05F00200000C07FFFFF7F7F0024744EE9
:10079000AA46F0EE488AB2EE049ABAF1000F56D09B
:1007A0000AF1FF3878EEA87A18EE900AF4EEC87ACB
:1007B000F1EE10FA3ADC07F0FBFA06EB880341ECA5
:1007C0001A0B186807F0F4FA30A3D3E9002307F0F6
:1007D00047FB02460B4651EC1A0B07F0D1FD28BB34
:1007E000AA4586BF05F50073A3EB0A03A5EB0A0330
:1007F000072B0ED9AA452DDD40F2F91757456FF4A6
:10080000FC73B8BF57461F4406EB870393ED008A7D
:100810003D467B1C5A42C2F30802C3F3080358BF8B
:10082000534207EE903AF8EEE77AFCE668EE898AE2
:10083000F4EEC88AF1EE10FAD2DDA84506EB880383
:10084000CED0C246D3ED008ABAF1000FA8D140F253
:10085000FF18A7E70AF1070706EB870393ED008A65
:100860003D46D6E700230220CBF80C3085E493ED1B
:10087000008A13ED016ADFED047A0D4640F2FF13A2
:10088000D6E600BFAFF300800080FF439A999999A4
:100890009999F13F000000002DE9F04F2DED0C8BF0
:1008A0000346B5B010330193CD4B9FEDCEDA93EDF7
:1008B00000AAD3ED019ADFEDCCDA03909FEDC68B51
:1008C0000023069100F1080B02908A464FF0270999
:1008D0000493049F039B13933D46013722930BA877
:1008E000C7F12703029A1B9303460CA801991192A2
:1008F000209202461AA8282400261A9101460EA822
:10090000159524951694199425942B948DED288B88
:10091000CDE90EB98DED0CAACDED0D9ACDF874B0E0
:10092000CDF878900497179726971496239603F09E
:10093000C9FC039B01991D932B930C9B029ADDED3F
:100940000D7A24934FF07E5341F8083C29922723D7
:10095000A34A06981493F1EE677A0BF5A0731295EB
:100960002D9520942E943194CDE91E77CDE926B9AA
:100970002C96CDF838A0CDF83C901190CDF86C9025
:10098000CDF87090CDF88890CDED257A2F978BED2E
:1009900001DA1A934FEAC904106851680AEBC905D5
:1009A00052461060516008329542FAD105938C4B43
:1009B00021AA93ED020AD3ED030A1AA90EA803F0A7
:1009C0005DFF019BDAED017A13ED026A9BED017A7E
:1009D000DAED006A9DED0C1ADDED0D1A059B27EE90
:1009E000870A67EEC60AFEEE005AF6EE007AB9F103
:1009F000010FA6EE860AE6EE870A21EE251A61EEC1
:100A0000A71A1DD0AAF10802144459465246D2ED45
:100A1000037AD1ED025AD1ED036A92ED026A27EE14
:100A2000A67A67EEE57AA6EE257A0832A242E6EECD
:100A3000267A01F1080130EE070A70EEA70AE6D126
:100A400061EE207A20EEE19AE1EE807AA1EE009A42
:100A5000F0EE67AAB4EE679AF1EE10FA80F12D81FC
:100A60000AF1040754465E46984696ED001AD6ED04
:100A7000011A61EE2A7A2AEEE17AE9EE217AA9EEEC
:100A8000017AF4EE477AF1EE10FA80F1D58094ED18
:100A9000016A57ED016A083477EE867A36EE877A76
:100AA000A54207ED017A06F1080644ED017A07F147
:100AB0000807DAD143464946D0465A46002092ED0F
:100AC000000A92ED01BAF0EE40CADBEE4DCAF1EE3B
:100AD0004B0AA0EE2DBAF4EE4BCAF1EE10FA80F1FB
:100AE000C68098ED000AD8ED01BAB0EE40CA9BEE80
:100AF0008DCAF1EE6B0AE0EE0DBAB4EE6BCAF1EE00
:100B000010FA80F1C780C41808EBC10716464546A5
:100B100095ED001AD5ED011A6BEE017A21EECB7A34
:100B2000ECEEA17A0835ACEE817AF0EE67AAF4EE2D
:100B3000477AF1EE10FAB0EE479A6AD696ED001AAF
:100B4000D6ED011A6BEE817A21EEEB7AECEE217A8A
:100B50000836ACEE017AF4EE477AF1EE10FA45D69B
:100B600094ED016AD4ED006A77EEAA7A37EE097A3D
:100B700077EE867A36EE877ABD42C4ED017A84ED4F
:100B8000007A04F10804C3D1013902F1080208F126
:100B9000080800F5A47092D1029B019A03F5A07396
:100BA00002930B9B42F8083C02F5A47301930C9B43
:100BB0008BED01DAB9F10109CAF800300D9BCAF8D2
:100BC00004300BF5A47B0AF1080A7FF482AE35B03D
:100BD000BDEC0C8BBDE8F08F280000000100000088
:100BE000105904000000000000000080F0EE6B0AC5
:100BF000B0EE4C0A099208930791059007F082FC29
:100C0000099A089B07990598B0EE407AF0EE607A51
:100C1000A6E7F0EE4B0AB0EE6C0A09920893079132
:100C2000059007F06FFC099A089B07990598B0EEAC
:100C3000409AF0EE60AA81E7F0EE6A0AB0EE490A47
:100C400007F060FC94ED017A57ED016A083430EE4C
:100C5000877A36EE800AAC4207ED010A06F10806F3
:100C600004ED017A07F108077FF4FFAE22E7F0EE0A
:100C70006D1ABFEE001A099208930791059007F0CC
:100C800041FC099A089B07990598F0EE40CAB0EE1E
:100C900060BA26E7F0EE4D1ABFEE001A09920893EB
:100CA0000791059007F02EFC099A089B0799059873
:100CB000B0EE40CAF0EE60BA25E7059307F022FCDB
:100CC000059BB0EE409AF0EE60AAC9E60000000075
:100CD0002DE9F84F2DED088B9FED5DAAD0ED017A3F
:100CE0009FED5C7A129FD0ED006A20EE0A0A9346CF
:100CF00060EE277AC0EE079A3A4605469A460E46B7
:100D0000C7EE878A69EEA69AB0EE680A05F036FA51
:100D1000B4EE400AF1EE10FAB0EE408A64D607EE67
:100D2000907A95ED027AF8EEE7AAD5ED057A10EE05
:100D3000100A6AEE87AA8AEE279A07F039F88046E9
:100D400089461AEE900A07F033F83FA3D3E900234F
:100D500007F086F80B4602464946404607F0F2FA8D
:100D6000AB69B0F1000818BF4FF00108012B3BDD63
:100D7000B6EE00BA012418E0F4EEC0AAF1EE10FAC3
:100D800008DDB4EEC70AF1EE10FA4CBF4FF00108CF
:100D90004FF00008F0EEC97AF4EEE79AF1EE10FA9F
:100DA000AB692ADA01349C421EDAB0EE68AA78EE0A
:100DB000898A3A46B0EE680A3146284605F0DEF9DF
:100DC000B4EE400AF1EE10FAB0EE487AB0EE408A86
:100DD0000AD6B8F1000FCFD0B4EEC70AF1EE10FA80
:100DE00058BF29EE4B9AD5E71B4BCBF80030CAF819
:100DF0000030BDEC088BBDE8F88FA342F4DDB4EE03
:100E0000C78AF1EE10FA0ED5F5EEC08AF1EE10FAAF
:100E100048BFDFED128ACBED008A8AED008ABDEC77
:100E2000088BBDE8F88FB5EEC0AAF1EE10FA48BF06
:100E30009FED0AAA8BED00AA8AED007ABDEC088B23
:100E4000BDE8F88FAFF300809A9999999999C93FB5
:100E5000DB0FC940C2F38E4D0000C07F00000000D0
:100E60002F4B10B500222F4CC3F84825C3F844255A
:100E7000C3F84025C3F84C2515F00CFF238D952BA6
:100E800034D894F85D302BB11BF0E2F800283CD147
:100E900084F85D0000201BF0E7F888BBE26B224974
:100EA0001F4B9FED1D7B42F04462C1F808251F4A8D
:100EB000C3F848050221E063C3F844052076C3F86F
:100EC000400584ED0C7BC3F84C05C3F84801C3F81A
:100ED0004401C3F84001C3F84C01C2F88010BFF3CD
:100EE0004F8FBFF36F8FC2F8801110BD17F046F817
:100EF00001300128C5D940F241513E2008F078FA6E
:100F000040F25A513E2008F073FA40F257513E2009
:100F100008F06EFAAFF3008000000000000000004F
:100F200000800040804B002000F0014000E100E024
:100F30009FED197B70B51A4A1A4D002342F220002A
:100F40002021A972288185F82130136082F8283089
:100F500082ED027BAB7385ED067B1C4685F8221083
:100F600085F8203005F1280202F814300134202CD5
:100F7000FAD101260C48EE731AF01AFE0B4B1870CA
:100F80000B4B1C701AF084FE286017F06BFE85F87E
:100F9000236070BDAFF30080FFFFFFFFFFFFFFFF87
:100FA000A85000202851002005970100D8500020AB
:100FB000A0500020FFF7A4B801F048BC00B585B0F0
:100FC000CDE90210CDE9003202F044FB02F02AF92B
:100FD00002F0E6FC02F08AF9DDE90032DDE90210F8
:100FE00005B05DF804EB01F083BF00BF2DE9F04FC1
:100FF0002DED028B002585B0D0F800909582174624
:1010000016880390019102F05FFB99F8081001988F
:10101000A1F10201B1FA81F1490902F0A9FB02F044
:101020008FFB02F051F902F009FDBC8A99F80030FB
:10103000A34264D9A6F1A00208EE102AA6F52472F4
:1010400008EE902A019502952E46BA46D9F80480FA
:1010500004EB8404374608EB8406AB46707801F055
:1010600007FE18F8240001F0FDFD707800F0C8F8C4
:1010700099F80830012B05465ED0022B00F08F80D6
:1010800002F098F918EE100A02F050FBBBF1000FC5
:1010900070D0002F49D0DBF8083013B139465046E4
:1010A0009847002D69D06B6813B131465046984778
:1010B000002F3ED07B78002B3BD17378002B38D0AB
:1010C000039B1B7A002B74D002F07AFB1DB12B68B6
:1010D0000BB15046984702F03BFB002858D14FF027
:1010E0000103B370BAF814400134A4B2AAF8144052
:1010F00099F800309C42A9D3574680466CD04FF0F7
:10110000000801F0FFFF89F8090002F0CBF802F0B7
:10111000F7FA02F0D9FA01F0B9FC02F007F94046FB
:1011200005B0BDEC028BBDE8F08F5DB36B68002BA2
:10113000BBD102F045FBCAE77378002B34D102F033
:10114000EDFA029B4BB3019A801A90FBF3F46442D0
:10115000019BE01A02F0EAFA18EE900A02F014FA83
:10116000019402F027F918EE100A02F0DFFABBF141
:10117000000F8ED1002D96D127B17B7813B97378EB
:10118000002B9DD102F01CFB02F0E2FA0028A6D051
:101190007378D3B14FF00208B3E71C46D8E718EED6
:1011A000900A02F00BFA6BE718F8240001F07EFDBC
:1011B000C5E701F0B7FF7F280BD001F089FF01F0F0
:1011C000E1FD029002F03AFC7EE701F0ABFF7F28E0
:1011D000E0D14FF0010894E7002D90D0AB68002BD0
:1011E0008DD03146384698478BE700BF004870479E
:1011F000A4530020014800EBC1107047A452002006
:10120000024B00EB400003EB80007047E4540020E9
:1012100000B50346012B83B0084604D0022B11D041
:1012200003B05DF804FB019100F0C4FA019800F0EE
:1012300011FD019800F096F9019803B05DF804EBF8
:1012400001F034B8019100F0CBFA019800F062FD92
:10125000019800F09DF9019803B05DF804EB01F0EE
:1012600077B800BF70B515460E460446052200212A
:10127000284643F0CDFE5EB106EB8606204604EB21
:10128000860241786B5C1430013382426B54F8D192
:1012900070BD00BF30B5CB7A002B154683B00C462D
:1012A0000BBF4FF444724FF4F8724FF430734FF4A5
:1012B000D073042852D8DFE800F01920262F03004D
:1012C000002D46D001AB0DF103022846217B00F032
:1012D000CBFF9DF80330A08845F6A07202FB03F314
:1012E00000EB430000F5496003B030BDA088104416
:1012F000184400F5BE6003B030BDA0881044184407
:10130000503003B030BD207B70B96388E08800EBBB
:101310008300A03003B030BD6388A08800EB430099
:1013200000F5326003B030BD02F0D4FB638825893C
:10133000E488411E00FB033205FB01F153185033D2
:10134000234413440B44F03300EBC00003EB401084
:10135000CAE77846714602F0CFFBB3E70020C3E747
:1013600070B5C37A2C4A0446B3FA83F3A0205B0914
:10137000137002F0DBF902F051F901F0B7FF02F04F
:10138000D9F802F01DFAE37A244A002BA3880CBF97
:101390004FF430704FF4D070034413600DBF4FF41E
:1013A0004C764FF4F8754FF404764FF4447502F020
:1013B000BDF902F095F802F003FA502002F0B6F9F8
:1013C00002F012FA02F0FCF9A088A0F5247002F0F5
:1013D000ADF902F023F902F0C9F802F0F1F94FF487
:1013E000247002F0A3F902F0B3F802F0E9F9E37A0D
:1013F000002B0BBF6FF01F0400243046284602F07C
:1014000095F902F06DF802F0DBF9204602F08EF952
:10141000BDE8704001F02ABDEC7500202055002089
:1014200070B5C37A294A0446B3FA83F35B09A02056
:10143000137002F07BF902F0F1F801F057FF01F0B0
:1014400067FB02F0BDF9E37ABBBBA3884FF44C7095
:1014500003F5307320264FF430751D4A136002F0F7
:1014600065F902F03DF802F0ABF9A088A0F5247010
:10147000801B02F05BF901F0F9FC02F03FF802F08A
:101480009FF94FF4247002F051F902F0ADF902F027
:10149000C5F802F04FF802F093F9284602F046F939
:1014A00002F01EF802F08CF9502002F03FF901F032
:1014B00081FFBDE8704002F083B9A3884FF4F87053
:1014C00003F5D07300264FF4D075C6E7EC75002005
:1014D0002055002038B50D4602F094F9044601F07D
:1014E000DDFB00B14CB94FF6FF70A88001F05CFC49
:1014F000A87101F05FFCE87138BD144B144A1868FC
:101500001278144B201A4FF47A441B7804FB00F035
:1015100052B1B3B1A0F52404A4F53C5401F0ECFDA4
:10152000201AC0F38F20E0E733B100F5240000F566
:101530003C50C0F38F20D8E700F5AE0000F5CE4058
:10154000F7E7A0F5AE04A4F5CE44E7E72055002068
:10155000ED750020EC75002008460422002110449F
:1015600043F056BD08B5064B01201870FFF748FE42
:101570000449054A054B0360C0E9011208BD00BFDC
:10158000ED75002059150000D5140000611300000E
:1015900008B5064B002201201A70FFF731FE0449FE
:1015A000044A054B0360C0E9011208BDED75002037
:1015B00059150000D51400002114000070B5044630
:1015C000A020E37A002B0BBF4FF430764FF4D07697
:1015D0004FF45C754FF4147502F0A8F801F086FE24
:1015E00001F0A8FF02F0ECF8304602F09FF801F09D
:1015F00077FF02F0E5F8502002F098F801F0DAFEEB
:1016000002F0DEF8A088A0F5287002F08FF801F053
:10161000ADFF02F0D5F84FF4247002F087F801F026
:1016200097FF02F0CDF8284602F080F801F01EFA8C
:1016300001F0DEFF02F0C4F801F018FC4FF4AA60DC
:1016400002F074F802F034F801F04AFFBDE870408F
:1016500002F0B6B8F8B5C37A3D4D002B04460CBF76
:101660004FF458764FF4107601F0A4FE01F03EFEE0
:1016700001F03CFA01F04CFA2B78FBB9E37A002B2D
:101680000CBF0D276FF0180701F042FE01F018FFA4
:10169000637B002B4FD101F001FA287001F0E6FBCB
:1016A00002F078F8637B002B4ED002F00DF8A08892
:1016B000A0F5A070C01B02F039F816E0E37A002B09
:1016C0000BBF4FF474704FF424702025002502F0F6
:1016D0002DF801F06FFE02F073F8A088A0F5A0705D
:1016E000401B02F023F801F0C1FB01F0FFFD01F007
:1016F00005FF02F065F84FF4A07002F017F801F052
:1017000019FF02F05DF8304602F010F801F052FEC9
:1017100002F056F84FF4A06002F008F801F0E0FE85
:1017200002F04EF8502002F001F801F043FEBDE84F
:10173000F84002F045B801F083F901F097FB02F0A0
:1017400029F8637B002BB0D101F0BEF9AFE700BFF1
:10175000EE75002010B582B00C4601F087F901F05B
:10176000A1FB01F041FB607301F00EFAFFF73EFDB3
:101770000123009000220321502001F02BFA02B037
:1017800010BD00BF10B50C4601F00EFB207301F038
:1017900011FBA07301F002FB6060FFF727FD01F071
:1017A00031F80246A26094F90C102078BDE8104090
:1017B00001F054BC10B50020FFF722FD0C220021DF
:1017C000044643F025FC0349034A044B2360C4E963
:1017D000011210BD5517000085170000BD1500004F
:1017E00010B50020FFF70CFD0C220021044643F049
:1017F0000FFC054A0548064B06492160C4E9010271
:1018000000221A7010BD00BF851700005517000098
:10181000EE750020551600002DE9F047534F4FF0AC
:10182000000A81F810A08AB00D4602F007F9397855
:101830002E1D002957D0DFF8408154464FF0010992
:1018400001F008FB211D49008A1C3244314400F09C
:10185000B7FE21462878FFF7CDFC98F800308DF8C8
:101860002430694600F0DCFD00216A46084600F09D
:10187000E1FE05EB44032C44BDF82010BDF8222006
:1018800099801A816074B3F90C20397895320AF185
:10189000010AB2F5957F5FFA8AF405D8B3F90E30E4
:1018A0009533B3F5957F01D985F81090A142C7D83B
:1018B000C9B1B5F9043040F60D1203F287439342E3
:1018C00043D902232B7401290DD0B5F9063040F617
:1018D0000D1203F2874393423ED8B5F90A3003F262
:1018E0008743934238D82878FFF784FC3978490039
:1018F0000A1D40303144324400F062FE3C782B191E
:1019000000225A74287800F075FF194B19680746B1
:1019100029BBFF2C16D005EB4404063408352946B4
:1019200030463A4600F036FFB6F9003001335B101E
:1019300026F8023BB5F9003001335B10B44225F8BC
:10194000023BECD10AB0BDE8F087B5F9083003F2EC
:1019500087439342B5D8B6E702232B74C3E7054B00
:10196000186800F037FF07443FB2D2E7F175002056
:101970002855002024550020F3750020F0B50E46B0
:1019800085B01B4D1B4F04461022FF21301D43F034
:101990003FFB33783B7000262E7001F0F9F9164BAF
:1019A000014638781F78154BB3F90020144B039289
:1019B00019602978FFF71EFC039A009039463346D8
:1019C000202001F007F92B7801332B7001F0A6F8E5
:1019D000A37A0C49012B0BBFA28AA38AD343DA4313
:1019E00002F0010203F001034A700B7005B0F0BD74
:1019F000EF750020F0750020F2750020E6750020DC
:101A0000245500202C5500202DE9F047274D84B0A7
:101A1000064601F0EDFD01F0D3FE2B78ABB10024BA
:101A2000DFF89490DFF89480214FA246708801F08F
:101A30007DFE2B78013B9A4518D001F0C1FE0134A0
:101A40002B785FFA84FA5345F0D8708801F06EFE67
:101A500001F0B0FC01F0B4FE502001F067FE01F08F
:101A6000D5FD04B0BDE8F04701F0AABE114BB8F9AE
:101A700000203978187899F800A00392FFF7BAFB94
:101A80005146039A00900023202001F0A3F83B78F0
:101A900001333B70013401F0ABFD01F091FE2B7876
:101AA0005FFA84FA5345C1D8CFE700BFF175002033
:101AB000EF750020F0750020F2750020E67500201B
:101AC0002DE9F0412F4E0746A02001F02FFE01F036
:101AD0000DFC01F0ADFC01F073FE3378C3B10024BE
:101AE000DFF8A480254606E001F06AFE0134337871
:101AF000E5B2AB420ED9788801F018FE3378013B8D
:101B00009D42F1D198F8003073BB01F02FFDEBE757
:101B1000DFF87480788801F009FE98F8003073B31C
:101B200001F024FD01F04CFE502001F0FFFD01F01A
:101B300041FC01F045FEF888A0F5A07001F0F6FD2B
:101B400001F038FC01F07AFF01F03AFE4FF4A0708A
:101B500001F0ECFD3846FFF757FF00F077FF3078D3
:101B6000012804D8BDE8F08101F024FCBCE700EBBB
:101B7000C0004001BDE8F041A03001F0D7BD01F048
:101B800019FCCFE7F17500202C5500202DE9F0411C
:101B90000746A02001F0CAFD01F0A8FB3846FFF778
:101BA00033FFF888294EA0F5A07001F0BFFD01F0C9
:101BB00045FF01F0A3FC01F003FE4FF4A07001F01B
:101BC000B5FD01F035FC01F0FBFD3378C3B1002415
:101BD000DFF87C80254606E001F0F2FD0134337821
:101BE000E5B2AB420ED9788801F0A0FD3378013B15
:101BF0009D42F1D198F80030D3B901F071FCEBE7C8
:101C0000DFF84C80788801F091FD98F80030D3B16E
:101C100001F066FC01F0D4FD502001F087FD01F0D9
:101C2000C9FB01F0CDFD3078012804D8BDE8F08172
:101C300001F0C0FBD0E700EBC0004001BDE8F0417F
:101C4000A03001F073BD01F0B5FBE3E7F1750020B2
:101C50002C55002038B54388B3F5A07F04462CD01E
:101C6000B3F5207F3DD0A02B31D07846714601F0EE
:101C700043FF0220FFF7C4FA0C220021054643F07F
:101C8000C7F91C491C4A1D4B2B60C5E90112207B7A
:101C900001F020FF1A4B62881870012818BF2389B1
:101CA000E18808BF0023134400FB033301F1500017
:101CB000144A03441B09136038BD134A1349144BDB
:101CC000042010700220202208701A80D1E70E4AEA
:101CD0000E490F4B052010700120102208701A8049
:101CE000C7E7094909480A4A03230B7040210370DA
:101CF0001180BEE77D19000019180000C11A00000C
:101D0000F175002028550020F2750020F3750020A1
:101D1000E675002038B54388B3F5A07F05461FD08F
:101D2000B3F5207F30D0A02B24D07846714601F047
:101D3000E3FE0220FFF764FA0C220021044643F080
:101D400067F91649164A174B2360C4E90112287B2C
:101D500001F0C0FE1449154B087000221A6038BD0E
:101D6000134A1449144B04201070022020220870DA
:101D70001A80DEE70E4A0F490F4B05201070012034
:101D8000102208701A80D4E709490A480A4A032336
:101D90000B70402103701180CBE700BF7D1900005C
:101DA000191800008D1B0000F17500202855002037
:101DB000F2750020F3750020E6750020704700BF23
:101DC00070B5144B144E196000240D46A9220C71F5
:101DD0003046214643F01CF9C5F8054001F062F891
:101DE00000F04CFE0D4A33461278A92103F8011B7E
:101DF0000B49023A0A600B490B4A0B600B4B1470FB
:101E00001C7000F0C1FE3146A820BDE8704000F013
:101E100001BF00BFE455002034550020F6750020B6
:101E2000F055002030550020F4750020F775002093
:101E30002DE9F04F374ADFF8ECA03749374B1468EB
:101E4000DAF8002091F800801968354BDFF8D89057
:101E500093F800C00025002A2E4628461CDB02EB22
:101E6000820304EB83035F78FFB993F90C7093F955
:101E70000DE0BFB247EA0E470F6042B35B78CBB9C3
:101E80000125013A4FF0000C2E4601302A2803D0DC
:101E9000002A01F10401E2DA0EB1CAF8002015B1FE
:101EA0001F4B83F800C0BDE8F08F022F13D0012F25
:101EB00029D062B10CF1010C5FFA8CFCBCFBF8F389
:101EC00008FB13C3DBB2002BDAD00125DDE70126C6
:101ED0004FF0FF32D9E703EB4C0B1F7CBBF808E057
:101EE000BBF804B03F07CEF30D0E07F0405747EAAA
:101EF0000E0793F811E009EA8B3B47EA8E7747EA31
:101F00000B070F60B9E7B3F804E09F7947EA0E27A3
:101F10000F60B2E7E8550020F5750020305500202D
:101F2000F4750020F055002000C0FF0F70B5204D63
:101F30004FF4A06001F0FAFB2B680BB1FFF778FFBC
:101F400001F038FA1B4E01F03BFC4FF4287001F011
:101F5000EDFB01F0E1FA01F033FC45F6902001F0D1
:101F6000E5FB00F08BFD01F025FA01F029FC337848
:101F7000012B1CD900244FF4A06001F0D7FB2B6883
:101F80000BB1FFF755FF01F0C7FA01F019FC45F658
:101F9000A02001F0CBFB00F071FD01F00BFA01F085
:101FA0000FFC33780134E4B2013B9C42E3DB70BDAB
:101FB000E4550020F87500202DE9F047334A344BF2
:101FC000344E354F1578354A1C681068336897F8D9
:101FD00000E04FF00008C146C44617E003EB83025F
:101FE00004EB8202517819BB0168090C5173016836
:101FF0001173C3B14FF00108013B4FF0000EC14611
:102000000CF1010CBCF12A0F02D00430002BE5DAF0
:10201000B9F1000F00D03360B8F1000F01D087F89C
:1020200000E0BDE8F0874FF001094FF0FF33E7E72C
:10203000022917D001290FD0002BF4D00EF1010E88
:102040005FFA8EFEBEFBF5F205FB12E2D2B2002A69
:10205000D0D04FF00108D3E70168090A91800168E8
:102060009171E9E7016802EB4E0A41F38D31AAF85C
:102070000410016841F30D01AAF808100168C1F3CA
:10208000017111740168890F5174D5E7F57500204D
:10209000EC550020F0550020F77500203055002049
:1020A0002DE9F04106464FF4A06001F03FFB01F03E
:1020B00081F901F085FB4FF4247001F037FB01F04A
:1020C0002BFA01F07DFB45F6A02001F02FFB00F07C
:1020D000D5FC01F06FF9737B002B3DD001F070FB54
:1020E0001F4F3B78012B29D9DFF8788000244FF46B
:1020F000A06001F01BFBD8F800504DB100F0AEFE1F
:1021000040B32B79002B18BF03232B71FFF754FF2B
:1021100001F002FA01F054FB45F6A02001F006FBA5
:1021200000F0ACFC01F046F9737B4BB101F048FBC9
:102130003B780134E4B2013BA342D8DCBDE8F08136
:1021400000F0C2FC3B780134E4B2013B9C42CEDBA0
:10215000BDE8F0810323D8E700F0B6FCC0E700BF7C
:10216000F8750020E455002010B504468088A0F5DD
:10217000F87001F0DBFA01F0B9F801F0F7F901F0BD
:102180001FFB2046FFF78CFF4FF4A06001F0CEFA52
:10219000124B1C6834B100F061FED0B903232371E7
:1021A000FFF70AFF01F0AAF901F00AFB0C4B0D4AF8
:1021B0001B78023B1360FFF7B9FE4FF4A06001F0FB
:1021C000B5FA01F0F7F801F08BF9BDE8104001F025
:1021D000F7BA2379002B18BF0323E0E7E45500206A
:1021E000F6750020F055002010B504468088A0F553
:1021F000F87001F09BFA01F079F801F07FF901F035
:10220000DFFAFFF793FE4FF4A06001F08FFA01F0C0
:10221000D1F801F0ABF901F0D3FA104B104A1B785A
:102220002046023B1360FFF73BFF4FF4A06001F034
:102230007DFA0C4B1C6834B100F010FE48B9032342
:102240002371FFF7B9FE01F04BF9BDE8104001F032
:10225000B7BA2379002B18BF0323F1E7F6750020E6
:10226000F0550020E4550020F8B5054608461F4605
:10227000164601F02FFC2B7802240BB104EB8304EB
:102280006B780BB104EB8304AB781BB110FB03F04C
:1022900004EB8004044B3C60611EC908A3FB0131C0
:1022A000490801313170F8BD1986611810B504462E
:1022B00082B0007B01F00EFC1C4B1D4902461D48FC
:1022C0001A70097800686A46FEF7CCFF207B01F09F
:1022D00001FC9DF8003002220BB102EB83029DF855
:1022E00001300BB102EB83029DF802301BB110FBF1
:1022F00003F002EB8002531E0F491048DB08A1FBDC
:1023000003135B0801330E49037004200A60FEF7D3
:1023100077FF0C220021044642F07AFE09490A4A5E
:102320000A4B2360C4E9011202B010BDF57500200C
:10233000F6750020E855002019866118F875002010
:10234000E0550020C11D0000BD1D000069210000F6
:1023500010B5044682B0007B01F0BCFB1C4B1D494C
:1023600002461D481A70097800686A46FEF77AFF2F
:10237000207B01F0AFFB9DF8003002220BB102EB95
:1023800083029DF801300BB102EB83029DF802300D
:102390001BB110FB03F002EB8002531E0F491048E3
:1023A000DB08A1FB03135B0801330E490370042013
:1023B0000A60FEF725FF0C220021044642F028FEA9
:1023C00009490A4A0A4B2360C4E9011202B010BD50
:1023D000F5750020F6750020E85500201986611873
:1023E000F8750020E0550020C11D0000BD1D000053
:1023F000E921000010B4074A90F800C0064B074CD2
:1024000082F800C04A6840681A6020605DF8044B9A
:10241000704700BFF6750020EC550020E8550020FD
:10242000F0B5B0F90030B0F90220B0F90440B0F9CD
:1024300006501C441544B0F90830B0F90A20234472
:102440002A44B0F90C40B0F90E5023441544B0F9B9
:102450001040B0F912201C442A44B0F91430B0F9ED
:1024600016501C441544B0F91830B0F91A20234412
:102470002A44B0F91C40B0F91E50234415440B60A7
:102480000D61B0F92440B0F92060B0F92220B0F914
:1024900026702644B0F9284017442644B0F92A2073
:1024A000B0F92C403A443444B0F92E70B0F93060A1
:1024B0003A443444B0F93270B0F9346017442644D9
:1024C000B0F93620B0F9384017442644B0F93A2024
:1024D000B0F93C403444B0F93E604C603A44324478
:1024E0004A61B0F94070B0F94260B0F946C0234487
:1024F000B0F944402744B0F948402744B0F94C4073
:10250000B444B0F94A603C44B0F950706644B0F944
:102510004EC03C44B0F954706644B0F952C02744F0
:10252000B0F95840B444B0F956602744B0F95C4063
:10253000B444B0F95A603C44B0F95E708C606644B3
:102540003E448E61B0F960E0B0F966C0B0F96270E7
:102550002344B0F96440A644B0F968406744A644F7
:10256000B0F96AC0B0F96C40BC447444B0F96E7004
:10257000B0F970E0BC447444B0F97270B0F974E022
:10258000A644B0F97840A644B0F97C406744B0F95D
:1025900076C074441B196744B0F97AC0B0F97E0064
:1025A000CC6048BF1F335B11BC442A4460440B8499
:1025B00093191B1848BF1F335B11C8614B84F0BDD2
:1025C00010B5B0F904C0B0F90030B0F90240B0F96C
:1025D00006E06344B0F908C09C44B0F90C30A6444E
:1025E000B0F90A409C44B0F91030A644B0F90E404E
:1025F0006344B0F914C07444B0F912E06344B0F914
:1026000018C07444B0F916E09C44B0F91A30A644DE
:102610009E44B0F91E30B0F91C00734410EB0C005E
:1026200048BF0730002BB8BF0733C010DB1008804D
:10263000138010BD70B500EB80061368C6EBC606AC
:102640001446981B01EB810542F033FB6368206060
:10265000981B42F02EFB6060A068801B42F029FBB3
:10266000E368A060981B42F024FB2369E060C5EB9F
:10267000C505581B42F01DFB63692061581B42F0E1
:1026800018FBA3696061581B42F013FBE369A0616A
:10269000581B42F00EFB23692268E06193426DDB18
:1026A000C3EB431302EB420203EB82025311656951
:1026B0006268AA425ADCC5EB451502EB420205EB03
:1026C00082025511A169A268914247DBC1EB411119
:1026D00002EB420201EB82025111E268904235DACC
:1026E000C2EB421200EB400002EB80025211AB42FF
:1026F0002DBF184628461E462E4688422B4423D31B
:102700008E4228BF0E4690420B441BD3964228BFF0
:102710001646134494F824101D4A52F821109B08C1
:10272000801B40F25C5201FB00F003FB02F282428C
:102730002CD340F20A3202FB03F383422CBF002069
:10274000012070BD1046E4E70846DCE702EB4202D8
:10275000C0EB401000EB82025211C8E7C2EB4212FC
:1027600001EB410102EB81014911B6E7C2EB4212D4
:1027700005EB450502EB85056D11A3E703EB43036C
:10278000C2EB421202EB83035B1190E7022070BDA3
:102790005859040070B50546104616460C4634F0EC
:1027A000DDFA034630461E4634F0B4FAB4F90010A0
:1027B0000346B5F9000003FB01F200FB03FC01FB3B
:1027C00016CC00FB0623DB134FEAEC322A80238071
:1027D00070BD00BF404201FB00F041F2C70101FBA8
:1027E00000F00028BCBF00F5FF3000F2FF104014DD
:1027F000704700BF00EB800300EBC300400000B255
:10280000704700BFB0F90010024600F59E7C002022
:1028100005E00432A3F5C973624518440FD00B4696
:10282000B2F90410CB1AC92BF3DC13F1C90F02F172
:102830000402B8BF03F5C97362451844EFD147F6E7
:10284000574303FB00F08012704700BF2DE9F04FA3
:1028500085B0D2F814C001931378D2F818E0012B98
:1028600002D06346F4469E46B2F802809788D68826
:1028700014895389DFF8A4A14FEA08183F013601F3
:1028800024011B01AAF80080AAF80270AAF80460CB
:10289000AAF80640AAF8083053788AF80B30137863
:1028A0008AF80A30137C8AF80C305A4E5A4FDFF8F7
:1028B00074815478D368C6F800E0C7F800C0C8F83F
:1028C00000302CB1012C03D0032005B0BDE8F08FFF
:1028D000DFF84CB1DFF85091CBE90001017889F8BD
:1028E0000040D1B10024224607E0EDD8DBF800001B
:1028F00001340178E2B291420FD9456802EB8203BC
:1029000005EB83035B78042BEFD101398A42DBD1DD
:10291000DBF80410FFF76EFDE8E7007A3F49FEF7A9
:1029200077FCDBF8003002AA19785868FEF79AFCA9
:102930009DF80840002C5ED19DF809B0BBF1000F56
:102940004BD19DF80AB0BBF1000F38D19DF80BB008
:10295000BBF1000F25D19DF80CB0BBF1000F12D1D7
:10296000204600F0FFFE3A68D8F8001099F8000001
:102970003368FEF723FB294A2948019905B0BDE8D1
:10298000F04FFEF733BB02AA24490420FEF782FC75
:10299000BAF800209DF80C3002FB034400FB0B4406
:1029A000DEE702AA1D490320FEF774FC9DF80B30F8
:1029B000BAF8002002FB034400FB0B44CBE702AA59
:1029C00016490220FEF766FC9DF80A30BAF800208E
:1029D00002FB034400FB0B44B8E702AA0F490120A5
:1029E000FEF758FC9DF80930BAF8002002FB0344BA
:1029F00000FB0B44A5E702AA08490020FEF74AFCA9
:102A00009DF80830BAF8002000FB04F402FB0344F0
:102A100092E700BF105600200C560020F45500200D
:102A20001040002014560020F97500200249034A86
:102A300001230B725373704710400020F45500209F
:102A4000014B0122DA6070470010004010B5064CBF
:102A500002E000F07DFE18B9D4F86039012BF8D1FE
:102A6000014B01221A6110BD00100040024B0022F0
:102A7000C3F80421704700BF00100040024B002241
:102A8000C3F80C21704700BF00100040024B002229
:102A9000C3F8FC2F704700BF0010004010B5094C70
:102AA00002E000F055FE18B9D4F80431002BF8D03C
:102AB000044BD3F804010022801AC3F8042118BF84
:102AC000012010BD0010004010B5074C02E000F0DE
:102AD0003FFE18B9D4F80C31002BF8D0024B00227D
:102AE000C3F80C2110BD00BF0010004010B5074C0A
:102AF00002E000F02DFE18B9D4F80031002BF8D018
:102B0000024B0022C3F8002110BD00BF001000409E
:102B1000014B01229A60704700100040194BD3F816
:102B20008C2522F07062C3F88C25D3F88425D3F865
:102B30008C15120302F070620A43C3F88C25D3F897
:102B4000882522F00062C3F88825D3F8882542F052
:102B50000062C3F88825D3F8902522F4E022C3F858
:102B60009025D3F8902542F48022C3F89025D3F81D
:102B7000902522F48012C3F89025D3F89025C3F84D
:102B80009025704700100040114BD3F88C2522F09F
:102B90007062C3F88C25D3F88C2542F00072C3F81C
:102BA0008C25D3F8902522F48012C3F89025D3F811
:102BB000902542F48012C3F89025D3F8882522F09E
:102BC0000062C3F88825D3F88825C3F888257047A4
:102BD00000100040090401F4E02170B441EAC3335D
:102BE0000A49039E01EA02420505094945F0060526
:102BF00043F40063C1F85069C1F85409C1F81039B1
:102C0000C1F81429C1F81C5970BC70470000FF0FAF
:102C100000100040114B40F0007010B40022082456
:102C200040F44030C3F83021C3F81445C3F8180508
:102C300003240B48C3F83445C3F83C0540F25B60FD
:102C4000C3F83805C3F81045C3F8442AC3F8302A3E
:102C5000C3F804155DF8044B704700BF0010004036
:102C600055555500014BC3F808057047001000404A
:102C7000022809D0074B1B7833B1012B03D1064B37
:102C80000422C3F810257047034B0322C3F8102514
:102C9000704700BFFA75002000100040024BD3F8C7
:102CA0004004C0F3003070470010004010B42B4BBC
:102CB0002B499B6800F5166003FB00F081FB003197
:102CC00063284FEAE073C3EB611134DD254B984272
:102CD0001ADB25484FF4FE0C7F23244A244C081AA3
:102CE0001060D4F88C15234821F47F01C4F88C15AA
:102CF000D4F88C2542EA0C0242F00042C4F88C253C
:102D000003805DF8044B70471B4B01F5747283FB25
:102D100002039818D317C3EBA02343F6095003FB13
:102D200000F000284FEA0342B8BF07301BB202F49C
:102D30007F0CC010D1E7104BA1F5747283FB0243E6
:102D40009C18D3170D4A9042C3EBA423E5DA0C4834
:102D50004FF4000C6FF07F03BFE700BF4C5600201C
:102D60001F85EB51C0F47B01EEC803005C560020C8
:102D700000100040E875002003F039865D1081FEE8
:102D8000702FFCFF014BD868704700BF4C560020E5
:102D9000014B1868704700BF5C560020014B586813
:102DA000704700BF60560020014B1878704700BF85
:102DB000605600200A4B0B4A93F90010D2F84004E9
:102DC0007F2901D0C10402D4022058707047D2F884
:102DD000500410F4F81018BF01205870704700BF5D
:102DE0006056002000100040194BD3F80C05C3B208
:102DF000092B0BD810F0FE000FD0033B062B24D874
:102E0000DFE803F01D191B1F21151700F82B0BD04D
:102E1000FC2B08BF6FF0030000D17047F42B14BFE8
:102E200000206FF00B0070476FF00700704708201C
:102E30007047092070470420704705207047032021
:102E4000704706207047072070470220704700BF78
:102E5000001000400048704718560020024BD3F87D
:102E6000000400F001007047001000400B4BD3F845
:102E70001C21012A05D00A4B00217F2259601A70BB
:102E800070470021D3F84825C3F81C11D3F8241447
:102E9000034B02F07F0259601A7070470010004027
:102EA00060560020024B0122C3F80827704700BF7C
:102EB000001000400B4B0C480C49082210B4C3F81A
:102EC00050094FF4C124C3F8542900200122C3F84B
:102ED0001049C3F81409C3F81C195A645DF8044B6F
:102EE000704700BF00100040185600200600800008
:102EF0002DE9F843054616464F48504C3422884683
:102F000000211F4642F084F84D4ADFF848E192E87C
:102F1000030002F1080384E803004A4A4A494B4887
:102F20004B4C05704FF0000CA1F800C0C2F800C077
:102F30000FCB4FF0010984E80F00CEF8FCCFCEF89C
:102F4000FC9F002D72D10323CEF81035414C002098
:102F5000C4F80C8500F0ECF83B0EC4F82435330EB1
:102F600013F0800F4FEA0727C4F81C7518BF0A2218
:102F7000C4F8283508BF0522374B003D4FEA062626
:102F800018BF0125C4F8206504211A702D060122FE
:102F9000C4F8302545F48025C4F82C154FF4403092
:102FA0000221C4F81455C4F81805C4F80435C4F84F
:102FB0000019D4F8183923F47003C4F81839D4F878
:102FC000183923F0F853C4F81839D4F8203923F409
:102FD0004033C4F82039D4F82039C4F82039D4F863
:102FE0009C35102123F47C13C4F89C35C4F80827C1
:102FF000C4F80012D4F8503623F44073C4F85036A5
:10300000D4F8503643F40073C4F85036D4F8503630
:1030100023F00103C4F85036D4F85036002013438F
:10302000C4F85036C4F83405BDE8F883012D04BF58
:103030000423CEF8103589E718560020605600208A
:10304000F85804005C560020E8750020FA7500204E
:103050004C56002000100040FB75002010B4194CA5
:1030600094F901308B4214DD6FF000439A42617095
:103070000CD0642303FB02F1207000F5166391FB72
:10308000F3F3C4E9012372B95042E0605DF8044BE8
:1030900070477F29FAD061686FF000439942E8D009
:1030A0005DF8044B7047084B0849002A01FB0030CB
:1030B00082EAE273A3EBE273B0FBF3F0E5DC0246D5
:1030C000E2E700BF4C56002000180D8F40420F0071
:1030D00008B5064B587800F041F8054B0549C3F890
:1030E0000C0700224860C3F8082708BD4C56002092
:1030F0000010004060560020014B587800F05CB88A
:103100004C56002008B5064B93F901007F2805D0E6
:10311000C0B200F03BF8C0F10A0040B208BD00BFE9
:103120004C560020014B93F9010070474C5600208B
:10313000014B1870704700BFFC750020064B93F9D7
:103140000030C01A1B2803DD442803DC1C387047FC
:103150000020704728207047FC750020094B93F928
:103160000030C01A1B2806DD442807DC064B1C383B
:1031700053F8200070474FF40070704740F23770EA
:10318000704700BFFC75002068590400084B93F994
:103190000030C01A1B2806DD442806DC054B184405
:1031A00010F81C0C7047162070473E20704700BF77
:1031B000FC7500200C5A040008B5FFF7BFFF024B56
:1031C00053F8200008BD00BF385A040010B4062987
:1031D000114C0B46A8BF06232370B9B10F490478E0
:1031E0000C60012B12D044784C60022B0ED08478F6
:1031F0008C60032B0AD0C478CC60042B06D0062B3D
:10320000047908BF43790C6108BF4B61044B1A6015
:103210005DF8044B704700BFFD7500206C56002020
:10322000685600201B4B1A7882B310B41A481B4909
:103230000468012303FA04F49A42C1F804451FD03C
:103240004468022A03FA04F4C1F8044518D08468DB
:10325000032A03FA04F4C1F8044511D0C468042A0F
:1032600003FA04F4C1F804450AD00469052A03FAF4
:1032700004F4C1F8044503D042699340C1F8043511
:10328000074B00221A605DF8044B7047044B002284
:103290001A607047FD7500206C56002000F0014058
:1032A00084560020064B0749D3E90020012303FA86
:1032B00002F28340C1F80825C1F80835704700BF05
:1032C0006C56002000F00140064B0749D3E900206E
:1032D000012303FA02F28340C1F80425C1F8043542
:1032E000704700BF6C56002000F00140054B064AB5
:1032F0001B6812680549A23302F5A07241F8332019
:10330000704700BF6C5600206856002000F0014056
:10331000034B044A1B680449A23342F83310704738
:103320006C56002000F001400411004010B41E4B08
:103330001A781E4B4AB31C681D4904F5117C002005
:10334000012A41F82C0020D05C6804F5117C022A87
:1033500041F82C0019D09C6804F5117C032A41F82F
:103360002C0012D0DC6804F5117C042A41F82C00F2
:103370000BD01C6904F5117C052A41F82C0004D0FF
:103380005A6902F5117241F82200196808480122B1
:1033900002FA01F1C0F808155B689A40C0F80825E8
:1033A0005DF8044B704700BFFD7500206C5600208F
:1033B00000F0014010B41B481B4B046804F1A2014B
:1033C00003EBC10100224A601849097831B304F5C2
:1033D0001174012943F8242020D0446804F51174A5
:1033E000022943F8242019D0846804F511740329B4
:1033F00043F8242012D0C46804F51174042943F85A
:1034000024200BD0046904F51174052943F8242005
:1034100004D0416901F5117143F821205DF8044B96
:10342000704700BF6C56002000F00140FD75002081
:1034300010B41B481B4B046804F1A20103EBC1014B
:1034400000224A601849097831B304F51174012942
:1034500043F8242020D0446804F51174022943F86D
:10346000242019D0846804F51174032943F824201A
:1034700012D0C46804F51174042943F824200BD039
:10348000046904F51174052943F8242004D0416926
:1034900001F5117143F821205DF8044B704700BF1E
:1034A0006C56002000F00140FD75002010B5034C63
:1034B000236813B198470023236010BD8456002071
:1034C000044B054A1968054B1268C9000B44403289
:1034D0005A6070476C5600206856002010F5014075
:1034E000034A044B12680449D200134459607047E0
:1034F0006C56002010F5014010100040034A044BA8
:1035000012680449D2001344596070476C56002079
:1035100010F5014000100040034A044B12680449B2
:10352000D2001344596070476C56002010F50140DA
:1035300008100040034A044B12680449D2001344A7
:10354000596070476C56002010F50140081000408B
:10355000034A044B12680449D2001344596070476F
:103560006C56002010F5014008100040034A044B3F
:1035700012680449D2001344596070476C56002009
:1035800010F501400410004008B500F04DF9084B5B
:10359000084A5B6812680849DB0003F1804303F5C1
:1035A000F83302F5A272C3F81025C3F8141508BD4C
:1035B0006C560020685600200010004008B500F04E
:1035C00033F9084B084A5B6812680849DB0003F1CD
:1035D000804303F5F83302F5A272C3F81025C3F84F
:1035E000141508BD6C5600206856002004100040D9
:1035F000034A044B12680449D200134459607047CF
:103600006C56002010F5014044100040014B024A66
:103610001A60704784560020B52E0000074B084AF8
:103620005B6812680749DB0003F1804303F5F83358
:103630004832C3F81015C3F8142570476C560020A3
:103640006856002004110040014B1860704700BF0D
:103650008856002010B5134C2368E3B10320124CA8
:103660001249C3F8080500220120C3F81025226082
:10367000D8600A70C3F84025C3F84425C3F848252C
:10368000C3F84C25C3F84021C3F84421C3F84821AE
:10369000C3F84C2110BD7846714600F02DFA23681E
:1036A000DCE700BF8856002094560020FE750020FD
:1036B000044B1B680022C3F84021C3F84421C3F81F
:1036C00048217047885600200B4B0C491B6800228C
:1036D0000120D8600A70C3F84025C3F84425C3F818
:1036E0004825C3F84C25C3F84021C3F84421C3F84A
:1036F0004821C3F84C21704788560020FE750020F1
:10370000044B054A1B6801215960D3F8403513600A
:10371000704700BF8856002094560020024B1B685B
:10372000D3F84005704700BF88560020034B1B6844
:10373000D3F840251044C3F8400570478856002050
:10374000024B1B6801221A60704700BF8856002098
:10375000034B1B68D3F84C01003818BF0120704799
:1037600088560020014B1860704700BF8C5600201F
:10377000064B00011B6829B1054A1268801AC3F87C
:103780004C057047C3F84C05704700BF88560020B1
:103790008C560020074B1A7852B90749074A096826
:1037A0001068D1F84C2502440120C1F84C2518704E
:1037B000704700BFFE750020885600208C56002000
:1037C00010B5084C236802E0D3F84C211AB9D3F89D
:1037D0004021002AF8D0FFF769FE23680022C3F8D1
:1037E000402110BD88560020044B05491B6800226B
:1037F000D3F848050860C3F848257047885600206C
:1038000090560020064B186848B1064B1B68D3F849
:1038100048251AB1D3F84835181A70471046704732
:103820009056002088560020054B1B680022C3F8E4
:103830004421D3F840251044C3F84405704700BF25
:103840008856002010B40428514C8446A8BF4FF07D
:10385000040C84F800C0B8B14E480C880480BCF158
:10386000010F11D08C788470BCF1020FCC78C47039
:103870000AD00C790471BCF1040F4C79447103D166
:103880008C79C9798471C1714349102A1046A8BF47
:1038900010200870C2B35A0739D1421E092A36D9FE
:1038A00093ED007B3D4A82ED007B93ED027B82ED40
:1038B000027B93ED047B82ED047B93ED067B82ED2E
:1038C000067B93ED087B4108052982ED087B12D029
:1038D00093ED0A7B062982ED0A7B0CD093ED0C7BDD
:1038E000082982ED0C7B06D1D3E90E01C2E90E0155
:1038F0005DF8044B704700F0FE0130F0FE0003D08D
:1039000053F8213042F821305DF8044B7047234AC8
:10391000196811600128F7D0596851600228F3D066
:10392000996891600328EFD0D968D1600428EBD062
:10393000196911610528E7D0596951610628E3D05A
:10394000996991610728DFD0D969D1610828DBD056
:10395000196A11620928D7D0596A51620A28D3D04E
:10396000996A91620B28CFD0D96AD1620C28CBD04A
:10397000196B11630D28C7D0596B51630E28C3D042
:103980001028996B08BFDB6B916308BFD363BBE75B
:10399000017600209856002000760020204000206C
:1039A000224B1878002840D030B5214B214C197893
:1039B0004FF0A04C01F5E07201254CF8225093F82D
:1039C00001E01D4A0EF5A27E42EA0121A84244F818
:1039D0002E1029D0997801F5E07E02284CF82E505F
:1039E00093F803E00EF5A27E42EA012144F82E107E
:1039F0001AD0197901F5E07E03284CF82E5093F87F
:103A000005E00EF5A27E42EA012144F82E100BD00B
:103A1000997942EA012201F5E0714CF82150DB79F5
:103A200003F5A27344F8232030BD704701760020CF
:103A3000985600200060004003001300204A2149EE
:103A4000214B12781B6800200870002A36D030B451
:103A50001E491F4C4878DD0754BF18300C30012533
:103A6000012A44F820504FEA530025D010F0010FEE
:103A7000C878174C0CBF18300C300125022A44F8C6
:103A800020504FEA930017D010F0010F4879104CE6
:103A90000CBF18300C300125032A44F820504FEA9F
:103AA000D30309D013F0010FCB79094A14BF0C33AB
:103AB0001833012142F8231030BC7047704700BF13
:103AC00001760020FF75002020400020985600203D
:103AD0000060004007280DD8DFE800F00A0806045F
:103AE0000806040404207047032070470220704732
:103AF0000120704700207047024BC3E9000100BE5F
:103B0000704700BFA056002010B504460069054B61
:103B1000236008B123790BB9204610BD02F0E0FA0A
:103B2000204610BDE45A040010B504460069084B55
:103B3000236008B1237923B9204600F05FF92046BD
:103B400010BD02F0CDFA204600F058F9204610BD15
:103B5000E45A040010B504460069054B236008B11F
:103B600023790BB9204610BD02F0BAFA204610BDE9
:103B7000F45A040010B504460069084B236008B1EC
:103B8000237923B9204600F039F9204610BD02F010
:103B9000A7FA204600F032F9204610BDF45A04007E
:103BA00010B504460069054B236008B123790BB9B1
:103BB000204610BD02F094FA204610BD045B0400BC
:103BC00010B504460069084B236008B1237923B976
:103BD000204600F013F9204610BD02F081FA20467D
:103BE00000F00CF9204610BD045B04002DE9F04DF7
:103BF0002DED028BA8B00026044620A81D46B0EE8D
:103C0000408A0F46904603964FF0010A02F06AFA86
:103C1000754E04964FF420704FF0500BCDE906AB73
:103C200002F05CFA002814BF0123002308908DF8ED
:103C3000143006D16D4C2C6028B0BDEC028BBDE871
:103C4000F08D4FF42070CDE90CAB0A9602F046FAE5
:103C5000002814BF012300230E908DF82C3060D073
:103C60004FF42070CDE912AB109602F037FA00281D
:103C700014BF0123002314908DF844304BD020460C
:103C800000240E9B50F8041B2344D0F83C215A60BA
:103C90001960149BD0F87C12D0F8BC2303EB040C01
:103CA0000834B4F5207FCCF80010CCF80420E8D11B
:103CB000069819904FF0010A4D4C16948000CDF8EB
:103CC00060A002F00BFA002814BF534600231A909C
:103CD0008DF85C3019D00698CDF874A01E90DFF8EE
:103CE00014A1CDF86CA0800002F0F8F9002814BFF0
:103CF000012300231F908DF8703029D11A98169453
:103D000018B19DF85C30002B5ED11498109610B15C
:103D10009DF84430CBB90E980A9610B19DF82C301E
:103D200083B90898314C0496002884D09DF814304B
:103D3000002B80D002F0D4F92C6028B0BDEC028BAF
:103D4000BDE8F08D02F0CCF9EBE702F0C9F9E2E74B
:103D50001BAB009304AA16AB10A90AA802F0AAFD97
:103D600030B31F98CDF86CA018B19DF87030002BBF
:103D700030D11A98169410B19DF85C303BBB149862
:103D8000109610B19DF844303BBB0E980A9610B1C6
:103D90009DF82C3023BB20A8CDF80080B0EE480A57
:103DA00004AA394603AB02F01BFC039C0898BAE74F
:103DB0001F98CDF86CA00028A0D09DF87030002B83
:103DC0009CD002F08DF999E702F08AF99DE702F0A4
:103DD00087F9D4E702F084F9CBE702F081F9D4E760
:103DE00002F07EF9D7E700BFF45A04000000C07F5C
:103DF000E45A0400045B040025F05CB825F074B8B4
:103E0000704700BF10B50446FFF7F8FF204610BD0D
:103E1000014B0360704700BF145B04002DE9F04FB5
:103E2000B3F1000B85B002EB820388464FEAC30171
:103E30004FEA820303930E9B9FEDD82ADFEDD92A28
:103E40009FEDD71ACDF804B04FF0000A18BF1F46F7
:103E500002928146F7EE001A08BF574653462726BE
:103E60008B469E4240F30B8208EB830209EB8303EF
:103E70000433B00008EB860453ED017A93ED007A29
:103E8000F0EEE77AB0EEC77A77EE877AB2EC017A95
:103E900067EE827AB0EEC77AB4EEE77AF1EE10FA06
:103EA00003F1040304D9B4EEC17AF1EE10FA01D89B
:103EB00042ED012A9442DFD108EB0003344633ED92
:103EC000017AB5EE407AF1EE10FA264604F1FF349D
:103ED00044D1002CF3D1039B029ADDF804B01344C3
:103EE000BAEBC30F00F3EA810E9B4D4609F19C0724
:103EF0002824002603F5A07C9E46F5EC016AC4F157
:103F0000280AB0EE667A2A4600210123F2EC017AF3
:103F1000B4EEE77AF1EE10FAC8BF194603F10103D7
:103F2000C8BFB0EE677A9C42F0D169B1514409EB49
:103F300081034FEA810A1A6845F8042CC3ED006A30
:103F4000BBF1000F40F09D81AF4206F5A07604F171
:103F5000FF34D2D1002005B0BDE8F08F0AF1010A8C
:103F6000D345C0F2AB8108EB8402234609E072ED31
:103F7000017AF5EE407AF1EE10FA05D0B0EE677AEC
:103F80000B46591E002BF2D106F18042013A09EB93
:103F90008201D1ED013AD1ED007A77EEE37AB6EE07
:103FA000006A67EE867A08EB8202D2ED006AF5EECF
:103FB000407AF1EE10FAF0EEE65A40F01E8173EE10
:103FC000E53A09EB8305D5ED004AB34274EEE33AD6
:103FD0004FEA830C80F20481F0EE470A0CEB0300F9
:103FE000F5EE400A07EB8010F1EE10FABFEE000A82
:103FF000C44400F5A4709E4640F08C80F5EEC03AB3
:10400000F1EE10FA00F1C280B0EE645AF0EE477A99
:10401000F7EE006A64EEA25A27EE224AB0EE626A18
:10402000D5ED014AF0EE443A35EEA77AE4EEA63A31
:104030009E45E4EEC67A63EEA65A35EE445A66EE25
:10404000677A66EE633AE5EE267AE7EE065AE7EE21
:10405000263AC5ED007AC5ED015ACCED003A07DDF0
:104060001CED017A60EEC67AE7EE267A4CED017A15
:10407000744507DDDCED010A60EEA67A66EE600AA3
:10408000CCED017A0EF1010E97B3F4EE616AF1EE18
:1040900010FAB1EE463A04D1B5EE406AF1EE10FAEC
:1040A00026D0A0F5A072014651ED017A11ED027AF9
:1040B00052ED014A12ED024A63EE275A23EE075AE7
:1040C000E4EEA65A08320831A4EE265A67EEA67A24
:1040D00027EE267AE4EE867AA4EE067A02ED045AFA
:1040E00042ED035A904201ED047A41ED037ADBD1AF
:1040F000764500F5A07073D0F5EE400AF1EE10FAA7
:1041000005F104050CF1040CD5ED004A9CED007A94
:104110003FF474AFF5EE403AF1EE10FA11D1F5EE3E
:10412000C00AF1EE10FA61D4F1EE645AB1EE474ADA
:10413000BFEE006A67EE227A24EEA25AF0EE626ABF
:104140006EE7F0EEE37AF0EEE06AF4EEE67AF1EE96
:1041500010FA29DD80EEA36AF0EE616AE6EE066AE7
:10416000F5EEC03AF1EEE67AF1EE10FA48BFF1EE64
:10417000677AC1EEA76A26EE666A66EE877A66EE11
:10418000245A26EE074A26EEA45A49E7F1EE477A6A
:10419000B1EE645AFFEE006A3CE700BF00008034D5
:1041A0000000800000000000C3EEA06AB0EE616A6B
:1041B000A6EEA66AF5EEC00AF1EEC67AF1EE10FAA6
:1041C00048BFF1EE677A80EE276A66EEC66A66EE51
:1041D000245A66EE877A26EE074A26EEA45A1FE78F
:1041E000002E3FF73EAEDDF804B07DE6B0EE474A64
:1041F000F0EE645AB7EE006A9CE7B0EEE76AB4EE00
:10420000E56AF1EE10FA26EEA65A2CD4C5EE864ADF
:10421000B0EE614AA4EEA44AF1EEC45A26EE256A35
:10422000B5EE405AF1EE10FAF5EEC07A0FD1FFEE7E
:10423000005AF1EE10FAC8BFF0EE615A77EEA57A97
:10424000C6EE865A86EEA76AE6EE653AB9E6F1EE64
:1042500010FAD8BFB1EE466A77EE867AC5EE276AC5
:1042600073EEE63AADE6F5EE406AF1EE10FA22D0D2
:10427000F0EE654AF0EE465AB0EE646AC6E7B0006A
:104280001AE68A440EEB8A130EEB06020CEB8A1A2E
:10429000D3F800801068C2F80080D3F80480516819
:1042A000C2F8048043F8080B534502F1080243F8B2
:1042B000041CEDD148E61FED456AB1E7022005B0C8
:1042C000BDE8F08F2DE9F0412DED048BD0E90045DC
:1042D000012D94ED009A94ED018A1746984621D15C
:1042E0009FED427A68EE087ADFED416AF4EEE67AF5
:1042F000F1EE10FA3BD800233B607B6088ED009A1A
:104300004A680B68002A6CDD3A490868496803EB83
:10431000C2021860596008339342FAD1BDEC048B95
:10432000BDE8F08194ED037AD4ED027A27EE077AA6
:10433000022DA7EEA77A11DDA4F1100303EBC5034C
:104340002046D0ED057AD0ED046A67EEA77A0830F2
:10435000E6EEA67A834237EE277AF2D1DFED246AC1
:10436000B4EEE67AF1EE10FA68EE087ABCD9E9EE1E
:10437000097AB5EEC09A37EE877AF1EE10FAF1EECF
:10438000C77A01DBF1EE677AC8ED007AD1E9005611
:10439000002E79EE678A16DD04EBC606D4ED030A1B
:1043A000F0EE481A94ED020AB0EE681A04F0EAF949
:1043B0000834A64285ED000AC5ED010A05F108059D
:1043C000ECD1D8ED007A37EEC99AB1EE488A88EE82
:1043D000277AC9EE276AF1EE477AC7ED006AC7ED82
:1043E000017ABDEC048BBDE8F08100BF0000000045
:1043F00000008000105904002DE9F04F2DED0A8BCC
:10440000A0F1080885B028EAE87838F001080546E8
:1044100001910293B0EE408AF0EE608A00F03381A1
:10442000029B9FEDEEAA03F11006189B02F1010B0F
:1044300002F1020A4FEA0B1B01EBCA0A01F1100755
:1044400003F110044FF0000956ED030A16ED040ABB
:1044500020EE889A60EEE89AA8EE809AE8EE009A3C
:10446000B4EE699AF1EE10FA80F1BA8156ED010AC4
:1044700016ED020A60EE882A20EEE82AE8EE802A8D
:10448000A0EE082AF4EE422AF1EE10FA80F1E9815A
:1044900014ED03CA57ED047A14ED04BA54ED01BAD1
:1044A00054ED02AAB0EE4C7AA9EE277A09F102097E
:1044B0004D45A9EEA7BA04ED037A04ED04BA5AED0E
:1044C000026AF0EE6B7AE6EEA27AE6EE82AA44ED9C
:1044D000017A44ED02AA17ED026A57ED015A69EE1E
:1044E000066AB0EE47CA25EEC97AE9EEA56AA9EEDA
:1044F000867A76EEA7BA77EE2AAA44ED01BA44EDA1
:1045000002AA56ED026A57ED010A56ED017A17ED3F
:10451000027A20EEA70A60EEE60AA7EE260AE7EE88
:10452000270A30EE0A0A70EE8A0A40F35181DFED65
:10453000ABAA07F1080CB0EE6ABAB0EE6A1AF0EE58
:104540006A1A0AF1080006F1080104F10803CE46D0
:1045500050ED017A10ED023A1CED017A1CED026A71
:1045600051ED026A51ED01BA62EEE75A29EE065AA0
:10457000E3EE025A0EF1010E7545A9EE875A0CF1D1
:10458000080C00F10800F0EE653A67EE495A2BEE90
:1045900087CAE9EE865A01F1080103F1080327EE04
:1045A000667AF0EE654A6BEEA75A23EE224AA6EE33
:1045B00086CAABEE867AB0EE656AA7EE824AA6EEB0
:1045C000836A67EEE67A53ED046A73EEA65A53EDFA
:1045D000036AEBEE837A74EE266A74EEA55A75EEE2
:1045E000266A43ED045A43ED036A3BEE0CBA7AEEB9
:1045F00087AA71EE861A31EE271AA9D130EE0B0A7E
:1046000070EEAA0A31EE8A9A71EE0A9A14ED04BA93
:1046100014ED03CA54ED02AA54ED01BA28EE207A33
:1046200020EEE86AA8EE807AA8EE006AB4EE476A47
:10463000F1EE10FA80F1088168EE297A69EEE86AF5
:10464000E8EE897AE8EE096A37EE0C7A3BEE066A04
:10465000F4EE676AF1EE10FA04ED037A04ED046AF1
:1046600080F1E18077EEAB7A7AEEA6AAC84544EDF8
:10467000017A44ED02AA5F44DA4406F1100604F11F
:1046800010043FF7E1AE454540F39A80029B03EBEF
:10469000C807189B03EBC80402FB08F301324FEA7A
:1046A000C209019A02EBC30606EBC506434402EBBE
:1046B000C30A083EA9F1080BD7ED010A97ED000ADD
:1046C00068EE204A20EEE85AE8EE804AA8EE005A4A
:1046D000B4EE645AF1EE10FA80F19A80DAED006AD5
:1046E00094ED007AD4ED017ADFED3C1AA6EE857ADE
:1046F00008F101084545E6EEA47AF0EE479AB0EEDF
:10470000679A84ED007AC4ED017A5EDD3946B0EE39
:10471000611A22465346D3ED036A93ED026A24EEF2
:10472000E67A66EE247AA6EE057A08330832E6EEDB
:10473000857A083192ED016AF0EE476A92ED007ACF
:1047400077EE867A37EE267AC2ED017A82ED007A2C
:10475000D3ED017AD1ED005AD1ED016A93ED006AF3
:1047600027EEA67A67EEE57AA6EE257A9E42E6EE79
:10477000267A31EE071A71EEA71ACCD1D4ED009A41
:1047800094ED019A68EE817A21EEE87AE8EE217ADA
:10479000A8EE017AB4EE677AF1EE10FA2DD637EE74
:1047A000297A77EE897A454584ED007AC4ED017A5D
:1047B00007F1080704F10804CA445E447FF47CAFA3
:1047C00005B0BDEC0A8BBDE8F08FB0EE611AD9E7F9
:1047D000F0EE4A9AB0EE4A9A20E700BF00000000CF
:1047E000F0EE681AB0EE481A039203F08BFE039ABB
:1047F000F0EE409AB0EE609A38E6F0EE680AB0EE5D
:10480000480A03F07FFE30EE297A70EE897ACAE713
:10481000F0EE681AB0EE481A03F074FEB0EE405A9B
:10482000F0EE604A5AE7F0EE681AB0EE481AF0EE81
:10483000690AB0EE490A039203F064FE039AF0EEAF
:10484000406AF0EE607A0DE7F0EE681AB0EE481AB2
:10485000039203F057FE039AB0EE406AB0EE607A1E
:10486000EAE6F0EE681AB0EE481A039203F04AFE48
:10487000039AB0EE402AF0EE602A09E62DE9F043F3
:10488000DFED6F1A2DED028BB0EE608AF0EE408AFC
:10489000E0EEE18A87B0A0EE218A02AF04460D4621
:1048A000B4EE688AF1EE10FA914680F1BA8099ED83
:1048B000030AD9ED040ADFED621AB0EE401AF0EEF9
:1048C000607AA0EEE11AE0EE217AF4EE417AF1EEA0
:1048D00010FA80F19D8068EE010A27EEC80AE8EE22
:1048E000A70AA8EE810AB4EE600AF1EE10FA80F190
:1048F0008680D4E90013DE0079B34FF00008D9F8C0
:104900001440B4B1AA690091296868682346FFF78A
:1049100073FDB6F5003F06D9B8F1000F03D058F883
:10492000040C24F0E1FA1437BD46BDEC028BBDE85F
:10493000F083D9F81800C000B0F5003F1AD8103045
:10494000ADEB000DAA6900910DF1170329686868A5
:1049500023F00F03FFF750FDDBE7B6F5003F35D836
:1049600006F11003ADEB030D0DF1170828F00F0849
:104970004146C4E71030C7ED010A87ED020AF9602D
:1049800024F098FAF96897ED020AD7ED010A20B1F0
:1049900020F00F04103444F8040CD9F81430002B24
:1049A000B0D1D9F8183000914FEAC309AA69296833
:1049B00068682346FFF720FDB9F5003FA9D9002C10
:1049C000A7D054F8040C24F08FFAA2E706F11000E7
:1049D000C7ED020A87ED030A24F06CFA97ED030A8B
:1049E000D7ED020A50B320F00F0808F1100848F87C
:1049F000040CD4E90016F600E1B941467FE7F0EE79
:104A0000671AF0EE480AB0EE680A03F07BFD70E723
:104A1000B7EE001A03F076FDB0EE401AF0EE607AC1
:104A200059E7B7EE001A03F06DFDF0EE408AB0EEE4
:104A3000608A3CE741464FF0000860E78046D8E7CF
:104A400000000000036842681B6892ED007AD3ED15
:104A5000057A67EE877AC3ED057A036842681B68BA
:104A600092ED007AD3ED067A67EE877AC3ED067A87
:104A7000036842681B6892ED007AD3ED077A67EE0F
:104A8000877AC3ED077A036842681B6892ED007A63
:104A9000D3ED087A67EE877AC3ED087A0368426837
:104AA0001B6892ED007AD3ED097A67EE877AC3ED41
:104AB000097A03681B684268D3ED0A7A92ED007A9E
:104AC00067EE877AC3ED0A7A036842681B6892ED45
:104AD000007AD3ED0B7A67EE877AC3ED0B7A036821
:104AE00042681B6892ED007AD3ED0C7A67EE877A04
:104AF000C3ED0C7A036842681B6892ED007AD3ED2F
:104B00000D7A67EE877AC3ED0D7A036842681B68F9
:104B100092ED007AD3ED0E7A67EE877AC3ED0E7AC6
:104B2000036842681B68D3ED0F7A92ED007A67EE56
:104B3000877AC3ED0F7A036842681B6892ED007AAA
:104B4000D3ED107A67EE877AC3ED107A0368426876
:104B50001B6892ED007AD3ED117A67EE877AC3ED88
:104B6000117A036842681B6892ED007AD3ED127ADD
:104B700067EE877AC3ED127A036842681B6892ED8C
:104B8000007AD3ED137A67EE877AC3ED137A036860
:104B900042681B6892ED007AD3ED147A67EE877A4B
:104BA000C3ED147A036842681B6892ED007AD3ED76
:104BB000157A67EE877AC3ED157A036842681B6839
:104BC00092ED007AD3ED167A67EE877AC3ED167A06
:104BD000036842681B6892ED007AD3ED177A67EE9E
:104BE000877AC3ED177A036842681B6892ED007AF2
:104BF000D3ED187A67EE877AC3ED187A03684268B6
:104C00001B6892ED007AD3ED197A67EE877AC3EDCF
:104C1000197A03681B684268D3ED1A7A92ED007A1C
:104C200067EE877AC3ED1A7A036842681B6892EDD3
:104C3000007AD3ED1B7A67EE877AC3ED1B7A03689F
:104C400042681B6892ED007AD3ED1C7A67EE877A92
:104C5000C3ED1C7A036842681B6892ED007AD3EDBD
:104C60001D7A67EE877AC3ED1D7A036842681B6878
:104C700092ED007AD3ED1E7A67EE877AC3ED1E7A45
:104C8000036842681B68D3ED1F7A92ED007A67EEE5
:104C9000877AC3ED1F7A036842681B6892ED007A39
:104CA000D3ED207A67EE877AC3ED207A03684268F5
:104CB0001B6892ED007AD3ED217A67EE877AC3ED17
:104CC000217A036842681B6892ED007AD3ED227A5C
:104CD00067EE877AC3ED227A036842681B6892ED1B
:104CE000007AD3ED237A67EE877AC3ED237A0368DF
:104CF00042681B6892ED007AD3ED247A67EE877ADA
:104D0000C3ED247A036842681B6892ED007AD3ED04
:104D1000257A67EE877AC3ED257A036842681B68B7
:104D200092ED007AD3ED267A67EE877AC3ED267A84
:104D3000036842681B6892ED007AD3ED277A67EE2C
:104D4000877AC3ED277A70472DE9F04F2DED0C8B54
:104D500000288146B8BF00F1030987B029F0030994
:104D6000B9F1000F0490009192460193F0EE408A51
:104D7000B0EE609A40F313811D9B03EB43051C9B2F
:104D800003EBC5051D9B4FEA431BDDE91C3203EB1A
:104D9000021803EBC2071E46009BDB000435059397
:104DA0000024DAF80420DAF800309FEDDE8AA01C37
:104DB000E11C02FB04FE02FB00F002FB01F104FB1C
:104DC00002224FEACE0C4FEAC20E009A002A4FEAA6
:104DD000C0004FEAC10140F344810EEB030202928E
:104DE000059A039403EB020E019A18441944E64411
:104DF0006344D2F800C0029AF0EE489AF0EE48AA56
:104E0000B0EE48AAF0EE48BAB0EE48BAF0EE480A62
:104E1000B0EE480A1C4694ED00DADCED017AD3EDE1
:104E200001CA92ED011A90ED012A91ED013A144662
:104E300094ED00CA0446D4ED001A0C46D4ED002AC5
:104E4000644694ED007A6CEEA73A27EECD4A67EE01
:104E5000814A2CEE675A67EE825A21EEE76A67EEC6
:104E6000836A62EEE77AEDEE073A08339E45A7EED5
:104E70002C4A02F1080200F10800E7EE0C4A01F1A9
:104E800008010CF1080CA7EE015AE7EE215AA7EE33
:104E9000026AE7EE226AE7EE037A30EE230A70EE4A
:104EA000840A3BEE24BA7BEE85BA3AEE25AA7AEE66
:104EB00086AA79EEA69A38EE278AABD1039C20EE1B
:104EC000A87A29EE606AA0EE097AA0EE286AB4EE0C
:104ED000476AF1EE10FA80F1D3806BEEA87A69EEA2
:104EE0006B6AEBEE097AEBEE286A96ED015AD6ED85
:104EF000005A37EE057A35EE866AF4EE676AF1EE0F
:104F000010FA86ED017A86ED006A80F1FC802AEEC7
:104F1000A87A29EE6A6AAAEE097AAAEE286A97EDBB
:104F2000015AD7ED005A77EE857A75EEA66AB4EE8F
:104F3000476AF1EE10FAC7ED017AC7ED006A80F119
:104F4000D38068EE287A69EE486AE9EE897AE9EE5C
:104F5000A86A98ED015AD8ED005A37EE057A35EE79
:104F6000866AF4EE676AF1EE10FA88ED017A88ED50
:104F7000006A80F1AA8095ED006A15ED017A77EE5E
:104F8000867A77EE266A0434A14545ED016AC5EDBF
:104F9000007AD8445F445E445D443FF702AF049B0F
:104FA000994556DA1D9B03FB09F41C9B03EBC404D3
:104FB0001D9BDD00009BDE00DAF80410009ADAF891
:104FC0000030DFED580A01FB09F1002A4FEAC10069
:104FD00044DD019A99191268B0EE600A0344014455
:104FE0001846D3ED016AD2ED017AD0ED005A92ED68
:104FF000006A26EEA77A67EEE57AA5EE867A083390
:105000009942E6EE267A02F1080230EE070A70EEC7
:10501000A70AE5D168EEA07A20EEC97AE9EE007A17
:10502000A8EE807AB4EE677AF1EE10FA33D694EDFA
:10503000016AD4ED006A049B77EE867A36EE877AB1
:1050400009F101094B4584ED007AC4ED017A2C4445
:10505000B2D107B0BDEC0C8BBDE8F08FB0EE600AAA
:10506000D8E7F0EE489AF0EE48AAB0EE48AAF0EE83
:1050700048BAB0EE48BAF0EE480AB0EE480A1EE769
:10508000F0EE491AB0EE681A03F03CFAB0EE406A4E
:10509000B0EE607A21E7F0EE491AB0EE681A03F03C
:1050A00031FAD4ED017A049B70EEA70AD4ED007AB0
:1050B000C4ED010A37EE800A09F10109994584ED32
:1050C000000A2C447FF478AFC3E7F0EE491AB0EE43
:1050D000681AF0EE480AB0EE690A03F013FAF0EE2F
:1050E000406AF0EE607A46E7F0EE491AB0EE681AD0
:1050F000F0EE6A0AB0EE4A0A03F004FAB0EE406A33
:10510000B0EE607A1DE7F0EE491AB0EE681AF0EEE4
:105110006B0AB0EE4B0A03F0F5F9F0EE406AF0EEE0
:10512000607AF4E600000000DFED521A2DE9F04746
:10513000F0EE607AF0EE406AE0EEE16A8AB0E0EE0E
:10514000217A0B46D3E90045F4EE667AF1EE10FAC7
:10515000D0F800804168D0F80890066B02AF924604
:105160007DD6DFED451AB0EE660AF0EE670AA7EECF
:10517000E10AE6EEA10AB4EE600AF1EE10FA63D697
:10518000A4B1DAF800300093012507F1100307F10C
:10519000180248460195C7F81880FE613C617D61A0
:1051A000FFF7D2FD2037BD46BDE8F087ED00B5F52D
:1051B000003F1BD81035ADEB050D0DF11703DAF8E4
:1051C00000200092012423F00F033B6107F1180235
:1051D00007F1100301944846C7F81880FE617C610E
:1051E000FFF7B2FD2037BD46BDE8F08705F110009E
:1051F000C7ED010A87ED020AF96023F05BFEF9684A
:1052000097ED020AD7ED010A03460028B9D023F032
:105210000F040125E360DAF80030C7F81880103475
:1052200007F11802CDE90035484607F11003FE6189
:105230007D613C61FFF788FD54F8040C23F054FEB7
:105240002037BD46BDE8F087F0EE670AB0EE660A8B
:10525000B7EE001AF96003F055F9F96890E7B7EE78
:10526000001AF96003F04EF9F968F0EE406AF0EECA
:10527000607A76E700000000000000802DE9F04F22
:105280002DED028BADF53B7D0DF29F15029343682A
:10529000D2ED007A0392012B04460E4625F00F054D
:1052A000049300F0A481F5EE407AF1EE10FA00F0DC
:1052B000908173680499509311933369D4F80080F6
:1052C000539314934F1E7369316815935493069149
:1052D000A368F168A26901932A93079108F1080372
:1052E000B1690592A24628930891BAE80F000DF122
:1052F000AC09A9E80F0029979AE8070089E8070098
:105300004FF0010B059ACDF8C8B0002131923391CE
:1053100034920DF1A00EBEE80F000DF5AE7CACE8A6
:105320000F00BEE80F00ACE80F00BEE80F00ACE8CD
:105330000F00019BDFF8F8B3CCF80010002B0DDD57
:10534000029ADBF80000DBF804101346019A03EB25
:10535000C2021860596008339342FAD1509B539AA5
:10536000549909930DF5AE7C19930A921C920B91F6
:105370001D91BCE80F000DF1D409CA46A9E80F0041
:10538000BCE80F00A9E80F00BCE80F00A9E80F0077
:10539000099B2193079BDCF800C002982393089B8C
:1053A000C9F800C00A9A0B990C9026930698019BA5
:1053B0002090249225910E93BAE80F000DF5847E7B
:1053C000AEE80F00BAE80F00AEE80F00BAE80F0031
:1053D000AEE80F009BED020ADBED030ACEF800C039
:1053E0000CAA20A942A8FFF79FFE019B2268002B70
:1053F0001DDD02980346011D019803EBC00093EDEB
:10540000016AD2ED017A11ED017AD2ED006A77EEF0
:10541000867A37EE267A083301ED017A43ED017A78
:10542000984202F5A07201F10801E8D12268039BBD
:1054300093ED008AD3ED018AA3688DED358A002BA8
:10544000CDED368A8DED448ACDED458A8DED528ABB
:10545000CDED538A2DDD029901F1040909EBC30B4F
:1054600002F1040A144619ED011AD9ED001A21EED1
:10547000287A68EEE17AA8EE217AE8EE017AB4EEB5
:10548000677AF1EE10FA80F12381D4ED016A1AED0A
:10549000016A36EEC77A76EE677A09F10809CB45DC
:1054A0004AED017A84ED017A0AF5A07A04F5A07438
:1054B000D9D1039AD6E900491368526836924692C8
:1054C000539200214FF4A07228463593519345938F
:1054D00052933FF09DFD002399459DED538ADDEDEC
:1054E000528AC5F8403120D0C5F840911DDD04EB4B
:1054F000C9092E4694ED001AD4ED011A68EE017A1E
:1055000021EEC87AE8EEA17AA8EE817AF4EE477A25
:10551000F1EE10FA80F1F8800834A14586ED007AAA
:10552000C6ED017A06F10806E4D1019B002B4ADDA5
:105530001A46DDF808A0059B0499A8F10809DB00CC
:105540000AEBC20209EBC1094FF0000B9AED008A89
:10555000DAED018A8DED188A002FCDED198A8DEDD7
:10556000228ACDED238A8DED388ACDED398A0AF174
:10557000080A24DD2E4608EB0B0496ED001AD6ED42
:10558000011A28EE817A61EEE87AA8EE217AE8EE37
:10559000017AB4EE677AF1EE10FA69D694ED036AF7
:1055A000D4ED026A36EE477A76EEE77A84ED037A36
:1055B000C4ED027A0834A14506F10806DDD1524552
:1055C00099449B44C2D10DF53B7DBDEC028BBDE8F7
:1055D000F08FD2ED017AF5EE407AF1EE10FA7FF419
:1055E00068AE0DF53B7DBDEC028BBDE8F08F92ED12
:1055F000017A8268DFED4D8A0368B7EE008A002ADF
:1056000038EE678A78EEC78ADDDD98464FF00009EC
:1056100008F104064546002716ED011AD5ED011ADA
:1056200068EE817A21EEE87AE8EE217AA8EE017A36
:10563000B4EE677AF1EE10FA37D606ED017AC5EDD1
:10564000017A63680137BB4205F1080506F10806D7
:10565000E2DCA26809F101099145B4DA002B08F5F2
:10566000A078D5DC0DF53B7DBDEC028BBDE8F08F5D
:10567000F0EE680AB0EE480A0292019302F042FF8F
:1056800094ED037AD4ED027A019B029A77EE600AD8
:1056900037EEC00AC4ED030A84ED020A08344C4513
:1056A00006F108067FF469AF89E7F0EE680AB0EE0C
:1056B000480A02F027FF06ED010AC5ED010A6368FA
:1056C00001379F4205F1080506F10806A4DBC0E793
:1056D000F0EE680AB0EE480A02F014FFD4ED017A49
:1056E0001AED017A77EEE00A37EE400A09F108096F
:1056F000CB450AED010AC4ED010A0AF5A07A04F5CA
:10570000A0747FF4B0AED4E6F0EE480AB0EE680ABA
:1057100002F0F8FE08344C4586ED000AC6ED010A99
:1057200006F108067FF4E6AEFFE600BF00000000C9
:10573000105904002DE9F04F2DED048BADF53B7DA4
:105740000DF2AF1323F00F0309EE103A02F0800BB5
:10575000C2F3C0138A680493012A0B68044600F060
:10576000DB82D1F804A0DFF8E0824FF0000E0AF1EE
:10577000010900F548524FEAC90905929C460546C1
:1057800077460126012E00F05681D8F80000D8F89F
:10579000041004EBC702106051600832AA42FAD12B
:1057A000DCF800202A60DCF804206A60282E3046ED
:1057B00015D00EEB0601BA1903EBC10104EBC202CE
:1057C000D1ED007AC2ED007AD1ED017A01302828BE
:1057D000C2ED017A01F1080102F10802F0D10136AF
:1057E000292ECC4405F5A47507F12807D644C9D164
:1057F00094ED017AD4ED006AB0EEC78AF0EEE67A55
:10580000F4EEC87AF1EE10FA58BFB0EE678AB5EE42
:10581000408AF1EE10FA0BD0C7EE087A86EE887A4D
:1058200067EEA77AE7EE077AB1EEE77A28EE078A05
:1058300004F59C75234693ED036AD3ED026AF0EEFE
:10584000C67AB0EEE67AB4EEE77AF1EE10FA58BF17
:10585000F0EE477AF5EE407AF1EE10FA03F1080324
:105860000BD086EE277A86EEA76A27EE077AA6EE99
:10587000067AF1EEC76A67EEA67AF4EE487AF1EEA0
:1058800010FAC8BFB0EE678A9D42D4D104F52072E9
:1058900004F54D51A2F5A07393ED016AD3ED006AB2
:1058A000F0EEC67AB0EEE67AB4EEE77AF1EE10FAF0
:1058B00058BFF0EE477AF5EE407AF1EE10FA03F1B8
:1058C00008030BD086EE277A86EEA76A27EE077AC2
:1058D000A6EE067AF1EEC76A67EEA67AF4EE487A8B
:1058E000F1EE10FAC8BFB0EE678A9A42D4D102F541
:1058F000A0729142CED1B5EE408AF1EE10FADFED02
:10590000518A08BFB7EE008A26460027D6ED010A65
:1059100096ED000AF0EE681AB0EE481A02F032FF77
:105920000137282F86ED000AC6ED010A17D0B046D0
:10593000D8ED030A98ED020AF0EE681AB0EE481AA4
:1059400002F020FF08F1080888ED000AC8ED010AFE
:105950004545EDD106F5A47605F5A075D6E74FF4DB
:105960009C7200211AA83FF053FB1AA92046FAF7AF
:1059700093FF04F54A55059A20352346196842F8E5
:10598000041B954203F5A473F8D104F54C503C3048
:105990002A462346996842F8041B904203F5A473F3
:1059A000F8D1BBF1000F51D10AAB04F5405613AF4B
:1059B0000DF13009039300942946059C049D1E2295
:1059C0002B462046FEF72AFAD6ED805A96ED816ADC
:1059D000D6ED826A96ED837AD6ED847A039986F8BD
:1059E0003C0365EE885A26EE086A66EE886A27EE62
:1059F000087A67EE887AC6ED805A86ED816AC6ED30
:105A0000826A86ED837AC6ED847A89ED008A3C60ED
:105A10001AA81C91CDF86C901A971D94FFF712F8F4
:105A2000012386F83D3386F83E530DF53B7DBDECF2
:105A3000048BBDE8F08F1A6822605A6862603046B5
:105A4000B7E600BF0000000010590400DFF828830B
:105A50004FF4A072002104F5A46619EE100A3FF07D
:105A6000D7FAD8F80C30D8F808206360C4F84C3165
:105A7000C4F89432C4F8DC332260C4F84821C4F876
:105A80009022C4F8D823326004F2245604F58050E2
:105A9000336004F5CD6604F50051326004F26C66A3
:105AA000336004F5F666326004F2B476336004F6CF
:105AB000F806326004F6FC06336004F524663260B2
:105AC00004F64426336004F68836326004F68C36D9
:105AD000336004F54D66326004F6D446336004F654
